:030000000209886A
:0C098800787FE4F6D8FD7581400208007D
:10087C0041540D0A0041542B43574D4F44453D31D3
:10088C000D0A0041542B43574A41503D226C787855
:10089C00222C226C69757869616F313233220D0A12
:0608AC000041540D0A009A
:1009540012093B6010F599D2002000FD740129F9B9
:06096400E43AFA80EB22E8
:100911008F11759850438E40538EFE53890F758BFE
:10092100E8758DFFC2ABD28ED2ACD29C53A23F43AD
:0A093100A280C200E4F50FF50E22CB
:030023000208E2EE
:1008E200C0E0C0D075D000C000309815C298742105
:1008F200250EF8A699050EE50EC394204003750E49
:0F09020000309904C299C200D000D0D0D0E032AA
:1008B2007FFA1208D27FFA1208D27FFA1208D27F88
:1008C200FA1208D27FFA1208D27FFA1208D27FFAFD
:0F08D2007D527C03ED1D70011C144C70F7DFF19B
:0108E10022F4
:10084200E4FFEFC39420503012093BFE602AE50F0B
:10085200650E60097421250FF8EE666005850E0F9E
:10086200C322050FE50FC394204003E4F50F0F7474
:090872000129F9E43AFA80CAD325
:01087B00225A
:0B0994007BFF7A08797C120954D32203
:0D097B008F107BFF7A087981120954D32276
:10096A008B088A09890A7BFF7A08798F120954D37E
:01097A00225A
:10080000E4F593F594F591F592F595F596F5B1F536
:10081000B2F5B3F5B4F5C9F5CAF5CBF5CCF5E1F50C
:10082000E2120911D2AFD296D2C7D2C61208B27F55
:10083000FA1208D21208B27BFF7A0879AD12095475
:0208400080EA4C
:10093B00BB010689828A83E0225002E722BBFE02BA
:09094B00E32289828A83E49322ED
:00000001FF
