:030000000209539F
:0C095300787FE4F6D8FD75814002089F13
:10083A0041540D0A0041542B43574D4F44453D3115
:10084A000D0A0041542B43574A41503D226C787897
:10085A00222C226C69757869616F313233220D0A54
:06086A000041540D0A00DC
:10090F001208F66010F599D2002000FD740129F944
:06091F00E43AFA80EB222D
:1008CC008F11759850438E40538EFE53890F758B44
:1008DC00E8758DFFC2ABD28ED2ACD29C53A23F43F3
:0A08EC00A280C200E4F50FF50E2211
:0300230002087060
:10087000C0E0C0D075D000C000309815C298742177
:10088000250EF8A699050EE50EC394204003750EBB
:0F08900000309904C299C200D000D0D0D0E0321D
:0F0936007D527C03ED1D70011C144C70F7DFF136
:01094500228F
:10080000E4FFEFC3942050301208F6FE602AE50F93
:10081000650E60097421250FF8EE666005850E0FE0
:10082000C322050FE50FC394204003E4F50F0F74B6
:090830000129F9E43AFA80CAD367
:01083900229C
:0B095F007BFF7A08793A12090FD322BF
:0D0946008F107BFF7A08793F12090FD32232
:100925008B088A09890A7BFF7A08794D12090FD34A
:01093500229F
:10089F00E4F593F594F591F592F595F596F5B1F597
:1008AF00B2F5B3F5B4F5C9F5CAF5CBF5CCF5E1F56D
:0D08BF00E21208CCD2AFD296D2C7D2C62228
:1008F600BB010689828A83E0225002E722BBFE0200
:09090600E32289828A83E4932232
:00000001FF
